:100000000C94340018950000189500001895000015
:10001000189500001895000018950000189500002C
:10002000189500001895000018950000189500001C
:10003000189500001895000018950000189500000C
:1000400018950000189500001895000018950000FC
:1000500018950000189500001895000018950000EC
:1000600018950000189500008FEF8DBFC8EDE0ECEB
:100070004E2E88E08EBFD8E0F8E05F2EA89584B7BA
:10008000082E877F84BF88E1992780936000909332
:100090006000EEEFF7E0A0E0B1E088278D933197A4
:1000A000E9F76624A1E6B0E080E88C9380E08C93C9
:1000B0008FEF8AB980E080930001009100010F3F2B
:1000C00018F011F00C947000A0E0B1E08C918BB9A5
:1000D000A0E0B1E08C918F5F8C9310F40C945D00E4
:1000E0000C945A003197F1F70895689462F80895D6
:0600F000E89462F8089597
:00000001FF
